{
  "_format": "hh-sol-artifact-1",
  "contractName": "Bridge",
  "sourceName": "contracts/Bridge.sol",
  "abi": [
    {
      "inputs": [],
      "name": "InsufficientBalance",
      "type": "error"
    },
    {
      "inputs": [],
      "name": "NoServiceFee",
      "type": "error"
    },
    {
      "anonymous": false,
      "inputs": [
        {
          "indexed": false,
          "internalType": "address",
          "name": "token",
          "type": "address"
        },
        {
          "indexed": false,
          "internalType": "uint256",
          "name": "amount",
          "type": "uint256"
        },
        {
          "indexed": false,
          "internalType": "address",
          "name": "receiver",
          "type": "address"
        }
      ],
      "name": "Burn",
      "type": "event"
    },
    {
      "anonymous": false,
      "inputs": [
        {
          "indexed": false,
          "internalType": "address",
          "name": "token",
          "type": "address"
        },
        {
          "indexed": false,
          "internalType": "uint256",
          "name": "amount",
          "type": "uint256"
        },
        {
          "indexed": false,
          "internalType": "address",
          "name": "sender",
          "type": "address"
        }
      ],
      "name": "Lock",
      "type": "event"
    },
    {
      "anonymous": false,
      "inputs": [
        {
          "indexed": false,
          "internalType": "address",
          "name": "token",
          "type": "address"
        },
        {
          "indexed": false,
          "internalType": "uint256",
          "name": "amount",
          "type": "uint256"
        },
        {
          "indexed": false,
          "internalType": "address",
          "name": "receiver",
          "type": "address"
        }
      ],
      "name": "Mint",
      "type": "event"
    },
    {
      "anonymous": false,
      "inputs": [
        {
          "indexed": true,
          "internalType": "address",
          "name": "previousOwner",
          "type": "address"
        },
        {
          "indexed": true,
          "internalType": "address",
          "name": "newOwner",
          "type": "address"
        }
      ],
      "name": "OwnershipTransferred",
      "type": "event"
    },
    {
      "anonymous": false,
      "inputs": [
        {
          "indexed": false,
          "internalType": "address",
          "name": "token",
          "type": "address"
        },
        {
          "indexed": false,
          "internalType": "uint256",
          "name": "amount",
          "type": "uint256"
        },
        {
          "indexed": false,
          "internalType": "address",
          "name": "receiver",
          "type": "address"
        }
      ],
      "name": "Unlock",
      "type": "event"
    },
    {
      "inputs": [
        {
          "internalType": "address",
          "name": "_wrappedTokenAddress",
          "type": "address"
        },
        {
          "internalType": "uint256",
          "name": "_amount",
          "type": "uint256"
        }
      ],
      "name": "burn",
      "outputs": [],
      "stateMutability": "payable",
      "type": "function"
    },
    {
      "inputs": [],
      "name": "fee",
      "outputs": [
        {
          "internalType": "uint256",
          "name": "",
          "type": "uint256"
        }
      ],
      "stateMutability": "view",
      "type": "function"
    },
    {
      "inputs": [
        {
          "internalType": "address",
          "name": "_nativeToken",
          "type": "address"
        },
        {
          "internalType": "uint256",
          "name": "_amount",
          "type": "uint256"
        }
      ],
      "name": "lock",
      "outputs": [],
      "stateMutability": "payable",
      "type": "function"
    },
    {
      "inputs": [
        {
          "internalType": "string",
          "name": "_tokenName",
          "type": "string"
        },
        {
          "internalType": "string",
          "name": "_tokenSymbol",
          "type": "string"
        },
        {
          "internalType": "uint8",
          "name": "_decimals",
          "type": "uint8"
        },
        {
          "internalType": "uint256",
          "name": "_amount",
          "type": "uint256"
        },
        {
          "internalType": "address",
          "name": "_receiver",
          "type": "address"
        },
        {
          "internalType": "address",
          "name": "_nativeToken",
          "type": "address"
        }
      ],
      "name": "mint",
      "outputs": [],
      "stateMutability": "nonpayable",
      "type": "function"
    },
    {
      "inputs": [],
      "name": "owner",
      "outputs": [
        {
          "internalType": "address",
          "name": "",
          "type": "address"
        }
      ],
      "stateMutability": "view",
      "type": "function"
    },
    {
      "inputs": [],
      "name": "renounceOwnership",
      "outputs": [],
      "stateMutability": "nonpayable",
      "type": "function"
    },
    {
      "inputs": [
        {
          "internalType": "address",
          "name": "newOwner",
          "type": "address"
        }
      ],
      "name": "transferOwnership",
      "outputs": [],
      "stateMutability": "nonpayable",
      "type": "function"
    },
    {
      "inputs": [
        {
          "internalType": "address",
          "name": "_nativeToken",
          "type": "address"
        },
        {
          "internalType": "uint256",
          "name": "_amount",
          "type": "uint256"
        },
        {
          "internalType": "address",
          "name": "_receiver",
          "type": "address"
        }
      ],
      "name": "unlock",
      "outputs": [],
      "stateMutability": "nonpayable",
      "type": "function"
    },
    {
      "inputs": [
        {
          "internalType": "address",
          "name": "",
          "type": "address"
        }
      ],
      "name": "wrappedToNative",
      "outputs": [
        {
          "internalType": "address",
          "name": "",
          "type": "address"
        }
      ],
      "stateMutability": "view",
      "type": "function"
    }
  ],
  "bytecode": "0x60806040527f7700000000000000000000000000000000000000000000000000000000000000600260006101000a81548161ffff021916908360f01c021790555034801561004c57600080fd5b5061006961005e61006e60201b60201c565b61007660201b60201c565b61013a565b600033905090565b60008060009054906101000a900473ffffffffffffffffffffffffffffffffffffffff169050816000806101000a81548173ffffffffffffffffffffffffffffffffffffffff021916908373ffffffffffffffffffffffffffffffffffffffff1602179055508173ffffffffffffffffffffffffffffffffffffffff168173ffffffffffffffffffffffffffffffffffffffff167f8be0079c531659141344cd1fd0a4f28419497f9722a3daafe3b4186f6b6457e060405160405180910390a35050565b61362e806101496000396000f3fe608060405260043610620000925760003560e01c8063987d162a1162000061578063987d162a146200012f5780639dc29fac146200015d578063a5e83bcb146200017d578063ddca3f4314620001c1578063f2fde38b14620001f15762000092565b8063282d3fdf1462000097578063715018a614620000b75780638bc3920714620000d15780638da5cb5b14620000ff575b600080fd5b620000b56004803603810190620000af919062000c33565b6200021f565b005b348015620000c457600080fd5b50620000cf62000378565b005b348015620000de57600080fd5b50620000fd6004803603810190620000f7919062000c7a565b62000390565b005b3480156200010c57600080fd5b506200011762000462565b60405162000126919062000ce7565b60405180910390f35b3480156200013c57600080fd5b506200015b600480360381019062000155919062000ea4565b6200048b565b005b6200017b600480360381019062000175919062000c33565b6200075b565b005b3480156200018a57600080fd5b50620001a96004803603810190620001a3919062000f7e565b62000958565b604051620001b8919062000ce7565b60405180910390f35b348015620001ce57600080fd5b50620001d96200098b565b604051620001e8919062000fc1565b60405180910390f35b348015620001fe57600080fd5b506200021d600480360381019062000217919062000f7e565b62000996565b005b666a94d74f430000341462000260576040517ffa040fb800000000000000000000000000000000000000000000000000000000815260040160405180910390fd5b6200026a62000462565b73ffffffffffffffffffffffffffffffffffffffff166108fc349081150290604051600060405180830381858888f19350505050158015620002b0573d6000803e3d6000fd5b508173ffffffffffffffffffffffffffffffffffffffff166323b872dd3330846040518463ffffffff1660e01b8152600401620002f09392919062000fde565b6020604051808303816000875af115801562000310573d6000803e3d6000fd5b505050506040513d601f19601f8201168201806040525081019062000336919062001058565b507f40568d24078f16fec7efe527eb5900acc325ad318cb5d4bd7ad0aa110f4edbba8282336040516200036c939291906200108a565b60405180910390a15050565b6200038262000a20565b6200038e600062000aa5565b565b6200039a62000a20565b8273ffffffffffffffffffffffffffffffffffffffff166323b872dd3083856040518463ffffffff1660e01b8152600401620003d99392919062000fde565b6020604051808303816000875af1158015620003f9573d6000803e3d6000fd5b505050506040513d601f19601f820116820180604052508101906200041f919062001058565b507fae2a2f3f8158e4173d24a3a113140dcec8a721085e8b5c93e5cd7071718e8df283838360405162000455939291906200108a565b60405180910390a1505050565b60008060009054906101000a900473ffffffffffffffffffffffffffffffffffffffff16905090565b6200049562000a20565b60008087604051602001620004ab919062001166565b6040516020818303038152906040529050600073ffffffffffffffffffffffffffffffffffffffff16600160008573ffffffffffffffffffffffffffffffffffffffff1673ffffffffffffffffffffffffffffffffffffffff16815260200190815260200160002060009054906101000a900473ffffffffffffffffffffffffffffffffffffffff1673ffffffffffffffffffffffffffffffffffffffff1603620006405760008760405160200162000565919062001166565b6040516020818303038152906040529050818188604051620005879062000b71565b6200059593929190620011f3565b604051809103906000f080158015620005b2573d6000803e3d6000fd5b509250600083905084600160008373ffffffffffffffffffffffffffffffffffffffff1673ffffffffffffffffffffffffffffffffffffffff16815260200190815260200160002060006101000a81548173ffffffffffffffffffffffffffffffffffffffff021916908373ffffffffffffffffffffffffffffffffffffffff1602179055505050620006a3565b600160008473ffffffffffffffffffffffffffffffffffffffff1673ffffffffffffffffffffffffffffffffffffffff16815260200190815260200160002060009054906101000a900473ffffffffffffffffffffffffffffffffffffffff1691505b8173ffffffffffffffffffffffffffffffffffffffff166340c10f1985876040518363ffffffff1660e01b8152600401620006e09291906200123e565b600060405180830381600087803b158015620006fb57600080fd5b505af115801562000710573d6000803e3d6000fd5b505050507fbcad3d7d3dfccb90d49c6063bf70f828901fefc88937d90af74e58e6e55bc39d82868660405162000749939291906200108a565b60405180910390a15050505050505050565b666a94d74f43000034146200079c576040517ffa040fb800000000000000000000000000000000000000000000000000000000815260040160405180910390fd5b808273ffffffffffffffffffffffffffffffffffffffff166370a08231336040518263ffffffff1660e01b8152600401620007d8919062000ce7565b602060405180830381865afa158015620007f6573d6000803e3d6000fd5b505050506040513d601f19601f820116820180604052508101906200081c919062001282565b101562000855576040517ff4d678b800000000000000000000000000000000000000000000000000000000815260040160405180910390fd5b6200085f62000462565b73ffffffffffffffffffffffffffffffffffffffff166108fc349081150290604051600060405180830381858888f19350505050158015620008a5573d6000803e3d6000fd5b508173ffffffffffffffffffffffffffffffffffffffff16639dc29fac33836040518363ffffffff1660e01b8152600401620008e39291906200123e565b600060405180830381600087803b158015620008fe57600080fd5b505af115801562000913573d6000803e3d6000fd5b505050507fdbdf9b8e4b75e75b162d151ec8fc7f0561cabab5fcccfa2600be62223e4300c48282336040516200094c939291906200108a565b60405180910390a15050565b60016020528060005260406000206000915054906101000a900473ffffffffffffffffffffffffffffffffffffffff1681565b666a94d74f43000081565b620009a062000a20565b600073ffffffffffffffffffffffffffffffffffffffff168173ffffffffffffffffffffffffffffffffffffffff160362000a12576040517f08c379a000000000000000000000000000000000000000000000000000000000815260040162000a09906200132a565b60405180910390fd5b62000a1d8162000aa5565b50565b62000a2a62000b69565b73ffffffffffffffffffffffffffffffffffffffff1662000a4a62000462565b73ffffffffffffffffffffffffffffffffffffffff161462000aa3576040517f08c379a000000000000000000000000000000000000000000000000000000000815260040162000a9a906200139c565b60405180910390fd5b565b60008060009054906101000a900473ffffffffffffffffffffffffffffffffffffffff169050816000806101000a81548173ffffffffffffffffffffffffffffffffffffffff021916908373ffffffffffffffffffffffffffffffffffffffff1602179055508173ffffffffffffffffffffffffffffffffffffffff168173ffffffffffffffffffffffffffffffffffffffff167f8be0079c531659141344cd1fd0a4f28419497f9722a3daafe3b4186f6b6457e060405160405180910390a35050565b600033905090565b61223a80620013bf83390190565b6000604051905090565b600080fd5b600080fd5b600073ffffffffffffffffffffffffffffffffffffffff82169050919050565b600062000bc08262000b93565b9050919050565b62000bd28162000bb3565b811462000bde57600080fd5b50565b60008135905062000bf28162000bc7565b92915050565b6000819050919050565b62000c0d8162000bf8565b811462000c1957600080fd5b50565b60008135905062000c2d8162000c02565b92915050565b6000806040838503121562000c4d5762000c4c62000b89565b5b600062000c5d8582860162000be1565b925050602062000c708582860162000c1c565b9150509250929050565b60008060006060848603121562000c965762000c9562000b89565b5b600062000ca68682870162000be1565b935050602062000cb98682870162000c1c565b925050604062000ccc8682870162000be1565b9150509250925092565b62000ce18162000bb3565b82525050565b600060208201905062000cfe600083018462000cd6565b92915050565b600080fd5b600080fd5b6000601f19601f8301169050919050565b7f4e487b7100000000000000000000000000000000000000000000000000000000600052604160045260246000fd5b62000d598262000d0e565b810181811067ffffffffffffffff8211171562000d7b5762000d7a62000d1f565b5b80604052505050565b600062000d9062000b7f565b905062000d9e828262000d4e565b919050565b600067ffffffffffffffff82111562000dc15762000dc062000d1f565b5b62000dcc8262000d0e565b9050602081019050919050565b82818337600083830152505050565b600062000dff62000df98462000da3565b62000d84565b90508281526020810184848401111562000e1e5762000e1d62000d09565b5b62000e2b84828562000dd9565b509392505050565b600082601f83011262000e4b5762000e4a62000d04565b5b813562000e5d84826020860162000de8565b91505092915050565b600060ff82169050919050565b62000e7e8162000e66565b811462000e8a57600080fd5b50565b60008135905062000e9e8162000e73565b92915050565b60008060008060008060c0878903121562000ec45762000ec362000b89565b5b600087013567ffffffffffffffff81111562000ee55762000ee462000b8e565b5b62000ef389828a0162000e33565b965050602087013567ffffffffffffffff81111562000f175762000f1662000b8e565b5b62000f2589828a0162000e33565b955050604062000f3889828a0162000e8d565b945050606062000f4b89828a0162000c1c565b935050608062000f5e89828a0162000be1565b92505060a062000f7189828a0162000be1565b9150509295509295509295565b60006020828403121562000f975762000f9662000b89565b5b600062000fa78482850162000be1565b91505092915050565b62000fbb8162000bf8565b82525050565b600060208201905062000fd8600083018462000fb0565b92915050565b600060608201905062000ff5600083018662000cd6565b62001004602083018562000cd6565b62001013604083018462000fb0565b949350505050565b60008115159050919050565b62001032816200101b565b81146200103e57600080fd5b50565b600081519050620010528162001027565b92915050565b60006020828403121562001071576200107062000b89565b5b6000620010818482850162001041565b91505092915050565b6000606082019050620010a1600083018662000cd6565b620010b0602083018562000fb0565b620010bf604083018462000cd6565b949350505050565b7f7700000000000000000000000000000000000000000000000000000000000000815250565b600081519050919050565b600081905092915050565b60005b838110156200112357808201518184015260208101905062001106565b60008484015250505050565b60006200113c82620010ed565b620011488185620010f8565b93506200115a81856020860162001103565b80840191505092915050565b60006200117382620010c7565b6001820191506200118582846200112f565b915081905092915050565b600082825260208201905092915050565b6000620011ae82620010ed565b620011ba818562001190565b9350620011cc81856020860162001103565b620011d78162000d0e565b840191505092915050565b620011ed8162000e66565b82525050565b600060608201905081810360008301526200120f8186620011a1565b90508181036020830152620012258185620011a1565b9050620012366040830184620011e2565b949350505050565b600060408201905062001255600083018562000cd6565b62001264602083018462000fb0565b9392505050565b6000815190506200127c8162000c02565b92915050565b6000602082840312156200129b576200129a62000b89565b5b6000620012ab848285016200126b565b91505092915050565b7f4f776e61626c653a206e6577206f776e657220697320746865207a65726f206160008201527f6464726573730000000000000000000000000000000000000000000000000000602082015250565b60006200131260268362001190565b91506200131f82620012b4565b604082019050919050565b60006020820190508181036000830152620013458162001303565b9050919050565b7f4f776e61626c653a2063616c6c6572206973206e6f7420746865206f776e6572600082015250565b60006200138460208362001190565b915062001391826200134c565b602082019050919050565b60006020820190508181036000830152620013b78162001375565b905091905056fe60806040523480156200001157600080fd5b506040516200223a3803806200223a833981810160405281019062000037919062000342565b828281600390816200004a919062000627565b5080600490816200005c919062000627565b5050506200007f62000073620000a360201b60201c565b620000ab60201b60201c565b80600560146101000a81548160ff021916908360ff1602179055505050506200070e565b600033905090565b6000600560009054906101000a900473ffffffffffffffffffffffffffffffffffffffff16905081600560006101000a81548173ffffffffffffffffffffffffffffffffffffffff021916908373ffffffffffffffffffffffffffffffffffffffff1602179055508173ffffffffffffffffffffffffffffffffffffffff168173ffffffffffffffffffffffffffffffffffffffff167f8be0079c531659141344cd1fd0a4f28419497f9722a3daafe3b4186f6b6457e060405160405180910390a35050565b6000604051905090565b600080fd5b600080fd5b600080fd5b600080fd5b6000601f19601f8301169050919050565b7f4e487b7100000000000000000000000000000000000000000000000000000000600052604160045260246000fd5b620001da826200018f565b810181811067ffffffffffffffff82111715620001fc57620001fb620001a0565b5b80604052505050565b60006200021162000171565b90506200021f8282620001cf565b919050565b600067ffffffffffffffff821115620002425762000241620001a0565b5b6200024d826200018f565b9050602081019050919050565b60005b838110156200027a5780820151818401526020810190506200025d565b60008484015250505050565b60006200029d620002978462000224565b62000205565b905082815260208101848484011115620002bc57620002bb6200018a565b5b620002c98482856200025a565b509392505050565b600082601f830112620002e957620002e862000185565b5b8151620002fb84826020860162000286565b91505092915050565b600060ff82169050919050565b6200031c8162000304565b81146200032857600080fd5b50565b6000815190506200033c8162000311565b92915050565b6000806000606084860312156200035e576200035d6200017b565b5b600084015167ffffffffffffffff8111156200037f576200037e62000180565b5b6200038d86828701620002d1565b935050602084015167ffffffffffffffff811115620003b157620003b062000180565b5b620003bf86828701620002d1565b9250506040620003d2868287016200032b565b9150509250925092565b600081519050919050565b7f4e487b7100000000000000000000000000000000000000000000000000000000600052602260045260246000fd5b600060028204905060018216806200042f57607f821691505b602082108103620004455762000444620003e7565b5b50919050565b60008190508160005260206000209050919050565b60006020601f8301049050919050565b600082821b905092915050565b600060088302620004af7fffffffffffffffffffffffffffffffffffffffffffffffffffffffffffffffff8262000470565b620004bb868362000470565b95508019841693508086168417925050509392505050565b6000819050919050565b6000819050919050565b60006200050862000502620004fc84620004d3565b620004dd565b620004d3565b9050919050565b6000819050919050565b6200052483620004e7565b6200053c62000533826200050f565b8484546200047d565b825550505050565b600090565b6200055362000544565b6200056081848462000519565b505050565b5b8181101562000588576200057c60008262000549565b60018101905062000566565b5050565b601f821115620005d757620005a1816200044b565b620005ac8462000460565b81016020851015620005bc578190505b620005d4620005cb8562000460565b83018262000565565b50505b505050565b600082821c905092915050565b6000620005fc60001984600802620005dc565b1980831691505092915050565b6000620006178383620005e9565b9150826002028217905092915050565b6200063282620003dc565b67ffffffffffffffff8111156200064e576200064d620001a0565b5b6200065a825462000416565b620006678282856200058c565b600060209050601f8311600181146200069f57600084156200068a578287015190505b62000696858262000609565b86555062000706565b601f198416620006af866200044b565b60005b82811015620006d957848901518255600182019150602085019450602081019050620006b2565b86831015620006f95784890151620006f5601f891682620005e9565b8355505b6001600288020188555050505b505050505050565b611b1c806200071e6000396000f3fe608060405234801561001057600080fd5b50600436106101005760003560e01c8063715018a611610097578063a457c2d711610066578063a457c2d71461029d578063a9059cbb146102cd578063dd62ed3e146102fd578063f2fde38b1461032d57610100565b8063715018a61461023b5780638da5cb5b1461024557806395d89b41146102635780639dc29fac1461028157610100565b8063313ce567116100d3578063313ce567146101a157806339509351146101bf57806340c10f19146101ef57806370a082311461020b57610100565b806306fdde0314610105578063095ea7b31461012357806318160ddd1461015357806323b872dd14610171575b600080fd5b61010d610349565b60405161011a9190611141565b60405180910390f35b61013d600480360381019061013891906111fc565b6103db565b60405161014a9190611257565b60405180910390f35b61015b6103fe565b6040516101689190611281565b60405180910390f35b61018b6004803603810190610186919061129c565b610408565b6040516101989190611257565b60405180910390f35b6101a9610437565b6040516101b6919061130b565b60405180910390f35b6101d960048036038101906101d491906111fc565b61044e565b6040516101e69190611257565b60405180910390f35b610209600480360381019061020491906111fc565b610485565b005b61022560048036038101906102209190611326565b61049b565b6040516102329190611281565b60405180910390f35b6102436104e3565b005b61024d6104f7565b60405161025a9190611362565b60405180910390f35b61026b610521565b6040516102789190611141565b60405180910390f35b61029b600480360381019061029691906111fc565b6105b3565b005b6102b760048036038101906102b291906111fc565b6105c9565b6040516102c49190611257565b60405180910390f35b6102e760048036038101906102e291906111fc565b610640565b6040516102f49190611257565b60405180910390f35b6103176004803603810190610312919061137d565b610663565b6040516103249190611281565b60405180910390f35b61034760048036038101906103429190611326565b6106ea565b005b606060038054610358906113ec565b80601f0160208091040260200160405190810160405280929190818152602001828054610384906113ec565b80156103d15780601f106103a6576101008083540402835291602001916103d1565b820191906000526020600020905b8154815290600101906020018083116103b457829003601f168201915b5050505050905090565b6000806103e661076d565b90506103f3818585610775565b600191505092915050565b6000600254905090565b60008061041361076d565b905061042085828561093e565b61042b8585856109ca565b60019150509392505050565b6000600560149054906101000a900460ff16905090565b60008061045961076d565b905061047a81858561046b8589610663565b610475919061144c565b610775565b600191505092915050565b61048d610c40565b6104978282610cbe565b5050565b60008060008373ffffffffffffffffffffffffffffffffffffffff1673ffffffffffffffffffffffffffffffffffffffff168152602001908152602001600020549050919050565b6104eb610c40565b6104f56000610e14565b565b6000600560009054906101000a900473ffffffffffffffffffffffffffffffffffffffff16905090565b606060048054610530906113ec565b80601f016020809104026020016040519081016040528092919081815260200182805461055c906113ec565b80156105a95780601f1061057e576101008083540402835291602001916105a9565b820191906000526020600020905b81548152906001019060200180831161058c57829003601f168201915b5050505050905090565b6105bb610c40565b6105c58282610eda565b5050565b6000806105d461076d565b905060006105e28286610663565b905083811015610627576040517f08c379a000000000000000000000000000000000000000000000000000000000815260040161061e906114f2565b60405180910390fd5b6106348286868403610775565b60019250505092915050565b60008061064b61076d565b90506106588185856109ca565b600191505092915050565b6000600160008473ffffffffffffffffffffffffffffffffffffffff1673ffffffffffffffffffffffffffffffffffffffff16815260200190815260200160002060008373ffffffffffffffffffffffffffffffffffffffff1673ffffffffffffffffffffffffffffffffffffffff16815260200190815260200160002054905092915050565b6106f2610c40565b600073ffffffffffffffffffffffffffffffffffffffff168173ffffffffffffffffffffffffffffffffffffffff1603610761576040517f08c379a000000000000000000000000000000000000000000000000000000000815260040161075890611584565b60405180910390fd5b61076a81610e14565b50565b600033905090565b600073ffffffffffffffffffffffffffffffffffffffff168373ffffffffffffffffffffffffffffffffffffffff16036107e4576040517f08c379a00000000000000000000000000000000000000000000000000000000081526004016107db90611616565b60405180910390fd5b600073ffffffffffffffffffffffffffffffffffffffff168273ffffffffffffffffffffffffffffffffffffffff1603610853576040517f08c379a000000000000000000000000000000000000000000000000000000000815260040161084a906116a8565b60405180910390fd5b80600160008573ffffffffffffffffffffffffffffffffffffffff1673ffffffffffffffffffffffffffffffffffffffff16815260200190815260200160002060008473ffffffffffffffffffffffffffffffffffffffff1673ffffffffffffffffffffffffffffffffffffffff168152602001908152602001600020819055508173ffffffffffffffffffffffffffffffffffffffff168373ffffffffffffffffffffffffffffffffffffffff167f8c5be1e5ebec7d5bd14f71427d1e84f3dd0314c0f7b2291e5b200ac8c7c3b925836040516109319190611281565b60405180910390a3505050565b600061094a8484610663565b90507fffffffffffffffffffffffffffffffffffffffffffffffffffffffffffffffff81146109c457818110156109b6576040517f08c379a00000000000000000000000000000000000000000000000000000000081526004016109ad90611714565b60405180910390fd5b6109c38484848403610775565b5b50505050565b600073ffffffffffffffffffffffffffffffffffffffff168373ffffffffffffffffffffffffffffffffffffffff1603610a39576040517f08c379a0000000000000000000000000000000000000000000000000000000008152600401610a30906117a6565b60405180910390fd5b600073ffffffffffffffffffffffffffffffffffffffff168273ffffffffffffffffffffffffffffffffffffffff1603610aa8576040517f08c379a0000000000000000000000000000000000000000000000000000000008152600401610a9f90611838565b60405180910390fd5b610ab38383836110a7565b60008060008573ffffffffffffffffffffffffffffffffffffffff1673ffffffffffffffffffffffffffffffffffffffff16815260200190815260200160002054905081811015610b39576040517f08c379a0000000000000000000000000000000000000000000000000000000008152600401610b30906118ca565b60405180910390fd5b8181036000808673ffffffffffffffffffffffffffffffffffffffff1673ffffffffffffffffffffffffffffffffffffffff16815260200190815260200160002081905550816000808573ffffffffffffffffffffffffffffffffffffffff1673ffffffffffffffffffffffffffffffffffffffff168152602001908152602001600020600082825401925050819055508273ffffffffffffffffffffffffffffffffffffffff168473ffffffffffffffffffffffffffffffffffffffff167fddf252ad1be2c89b69c2b068fc378daa952ba7f163c4a11628f55a4df523b3ef84604051610c279190611281565b60405180910390a3610c3a8484846110ac565b50505050565b610c4861076d565b73ffffffffffffffffffffffffffffffffffffffff16610c666104f7565b73ffffffffffffffffffffffffffffffffffffffff1614610cbc576040517f08c379a0000000000000000000000000000000000000000000000000000000008152600401610cb390611936565b60405180910390fd5b565b600073ffffffffffffffffffffffffffffffffffffffff168273ffffffffffffffffffffffffffffffffffffffff1603610d2d576040517f08c379a0000000000000000000000000000000000000000000000000000000008152600401610d24906119a2565b60405180910390fd5b610d39600083836110a7565b8060026000828254610d4b919061144c565b92505081905550806000808473ffffffffffffffffffffffffffffffffffffffff1673ffffffffffffffffffffffffffffffffffffffff168152602001908152602001600020600082825401925050819055508173ffffffffffffffffffffffffffffffffffffffff16600073ffffffffffffffffffffffffffffffffffffffff167fddf252ad1be2c89b69c2b068fc378daa952ba7f163c4a11628f55a4df523b3ef83604051610dfc9190611281565b60405180910390a3610e10600083836110ac565b5050565b6000600560009054906101000a900473ffffffffffffffffffffffffffffffffffffffff16905081600560006101000a81548173ffffffffffffffffffffffffffffffffffffffff021916908373ffffffffffffffffffffffffffffffffffffffff1602179055508173ffffffffffffffffffffffffffffffffffffffff168173ffffffffffffffffffffffffffffffffffffffff167f8be0079c531659141344cd1fd0a4f28419497f9722a3daafe3b4186f6b6457e060405160405180910390a35050565b600073ffffffffffffffffffffffffffffffffffffffff168273ffffffffffffffffffffffffffffffffffffffff1603610f49576040517f08c379a0000000000000000000000000000000000000000000000000000000008152600401610f4090611a34565b60405180910390fd5b610f55826000836110a7565b60008060008473ffffffffffffffffffffffffffffffffffffffff1673ffffffffffffffffffffffffffffffffffffffff16815260200190815260200160002054905081811015610fdb576040517f08c379a0000000000000000000000000000000000000000000000000000000008152600401610fd290611ac6565b60405180910390fd5b8181036000808573ffffffffffffffffffffffffffffffffffffffff1673ffffffffffffffffffffffffffffffffffffffff1681526020019081526020016000208190555081600260008282540392505081905550600073ffffffffffffffffffffffffffffffffffffffff168373ffffffffffffffffffffffffffffffffffffffff167fddf252ad1be2c89b69c2b068fc378daa952ba7f163c4a11628f55a4df523b3ef8460405161108e9190611281565b60405180910390a36110a2836000846110ac565b505050565b505050565b505050565b600081519050919050565b600082825260208201905092915050565b60005b838110156110eb5780820151818401526020810190506110d0565b60008484015250505050565b6000601f19601f8301169050919050565b6000611113826110b1565b61111d81856110bc565b935061112d8185602086016110cd565b611136816110f7565b840191505092915050565b6000602082019050818103600083015261115b8184611108565b905092915050565b600080fd5b600073ffffffffffffffffffffffffffffffffffffffff82169050919050565b600061119382611168565b9050919050565b6111a381611188565b81146111ae57600080fd5b50565b6000813590506111c08161119a565b92915050565b6000819050919050565b6111d9816111c6565b81146111e457600080fd5b50565b6000813590506111f6816111d0565b92915050565b6000806040838503121561121357611212611163565b5b6000611221858286016111b1565b9250506020611232858286016111e7565b9150509250929050565b60008115159050919050565b6112518161123c565b82525050565b600060208201905061126c6000830184611248565b92915050565b61127b816111c6565b82525050565b60006020820190506112966000830184611272565b92915050565b6000806000606084860312156112b5576112b4611163565b5b60006112c3868287016111b1565b93505060206112d4868287016111b1565b92505060406112e5868287016111e7565b9150509250925092565b600060ff82169050919050565b611305816112ef565b82525050565b600060208201905061132060008301846112fc565b92915050565b60006020828403121561133c5761133b611163565b5b600061134a848285016111b1565b91505092915050565b61135c81611188565b82525050565b60006020820190506113776000830184611353565b92915050565b6000806040838503121561139457611393611163565b5b60006113a2858286016111b1565b92505060206113b3858286016111b1565b9150509250929050565b7f4e487b7100000000000000000000000000000000000000000000000000000000600052602260045260246000fd5b6000600282049050600182168061140457607f821691505b602082108103611417576114166113bd565b5b50919050565b7f4e487b7100000000000000000000000000000000000000000000000000000000600052601160045260246000fd5b6000611457826111c6565b9150611462836111c6565b925082820190508082111561147a5761147961141d565b5b92915050565b7f45524332303a2064656372656173656420616c6c6f77616e63652062656c6f7760008201527f207a65726f000000000000000000000000000000000000000000000000000000602082015250565b60006114dc6025836110bc565b91506114e782611480565b604082019050919050565b6000602082019050818103600083015261150b816114cf565b9050919050565b7f4f776e61626c653a206e6577206f776e657220697320746865207a65726f206160008201527f6464726573730000000000000000000000000000000000000000000000000000602082015250565b600061156e6026836110bc565b915061157982611512565b604082019050919050565b6000602082019050818103600083015261159d81611561565b9050919050565b7f45524332303a20617070726f76652066726f6d20746865207a65726f2061646460008201527f7265737300000000000000000000000000000000000000000000000000000000602082015250565b60006116006024836110bc565b915061160b826115a4565b604082019050919050565b6000602082019050818103600083015261162f816115f3565b9050919050565b7f45524332303a20617070726f766520746f20746865207a65726f20616464726560008201527f7373000000000000000000000000000000000000000000000000000000000000602082015250565b60006116926022836110bc565b915061169d82611636565b604082019050919050565b600060208201905081810360008301526116c181611685565b9050919050565b7f45524332303a20696e73756666696369656e7420616c6c6f77616e6365000000600082015250565b60006116fe601d836110bc565b9150611709826116c8565b602082019050919050565b6000602082019050818103600083015261172d816116f1565b9050919050565b7f45524332303a207472616e736665722066726f6d20746865207a65726f20616460008201527f6472657373000000000000000000000000000000000000000000000000000000602082015250565b60006117906025836110bc565b915061179b82611734565b604082019050919050565b600060208201905081810360008301526117bf81611783565b9050919050565b7f45524332303a207472616e7366657220746f20746865207a65726f206164647260008201527f6573730000000000000000000000000000000000000000000000000000000000602082015250565b60006118226023836110bc565b915061182d826117c6565b604082019050919050565b6000602082019050818103600083015261185181611815565b9050919050565b7f45524332303a207472616e7366657220616d6f756e742065786365656473206260008201527f616c616e63650000000000000000000000000000000000000000000000000000602082015250565b60006118b46026836110bc565b91506118bf82611858565b604082019050919050565b600060208201905081810360008301526118e3816118a7565b9050919050565b7f4f776e61626c653a2063616c6c6572206973206e6f7420746865206f776e6572600082015250565b60006119206020836110bc565b915061192b826118ea565b602082019050919050565b6000602082019050818103600083015261194f81611913565b9050919050565b7f45524332303a206d696e7420746f20746865207a65726f206164647265737300600082015250565b600061198c601f836110bc565b915061199782611956565b602082019050919050565b600060208201905081810360008301526119bb8161197f565b9050919050565b7f45524332303a206275726e2066726f6d20746865207a65726f2061646472657360008201527f7300000000000000000000000000000000000000000000000000000000000000602082015250565b6000611a1e6021836110bc565b9150611a29826119c2565b604082019050919050565b60006020820190508181036000830152611a4d81611a11565b9050919050565b7f45524332303a206275726e20616d6f756e7420657863656564732062616c616e60008201527f6365000000000000000000000000000000000000000000000000000000000000602082015250565b6000611ab06022836110bc565b9150611abb82611a54565b604082019050919050565b60006020820190508181036000830152611adf81611aa3565b905091905056fea2646970667358221220a19562795d2a5aa970e1f849733ca11b4e09cbedfac59c75288611a5a6299b4c64736f6c63430008110033a264697066735822122091e50c6cd3a1a0e6ce38a8fad5151946bbebc32d8756fb398344376bdd925df964736f6c63430008110033",
  "linkReferences": {},
  "deployedLinkReferences": {}
}